{
  "_format": "hh-sol-artifact-1",
  "contractName": "Marketplace",
  "sourceName": "contracts/Marketplace.sol",
  "abi": [
    {
      "inputs": [
        {
          "internalType": "address",
          "name": "_feeRecipient",
          "type": "address"
        },
        {
          "internalType": "uint256",
          "name": "_feePercent",
          "type": "uint256"
        }
      ],
      "stateMutability": "nonpayable",
      "type": "constructor"
    },
    {
      "inputs": [
        {
          "internalType": "address",
          "name": "owner",
          "type": "address"
        }
      ],
      "name": "OwnableInvalidOwner",
      "type": "error"
    },
    {
      "inputs": [
        {
          "internalType": "address",
          "name": "account",
          "type": "address"
        }
      ],
      "name": "OwnableUnauthorizedAccount",
      "type": "error"
    },
    {
      "inputs": [],
      "name": "ReentrancyGuardReentrantCall",
      "type": "error"
    },
    {
      "anonymous": false,
      "inputs": [
        {
          "indexed": true,
          "internalType": "uint256",
          "name": "listingId",
          "type": "uint256"
        },
        {
          "indexed": true,
          "internalType": "address",
          "name": "buyer",
          "type": "address"
        },
        {
          "indexed": false,
          "internalType": "uint256",
          "name": "price",
          "type": "uint256"
        },
        {
          "indexed": false,
          "internalType": "address",
          "name": "paymentToken",
          "type": "address"
        }
      ],
      "name": "Bought",
      "type": "event"
    },
    {
      "anonymous": false,
      "inputs": [
        {
          "indexed": true,
          "internalType": "uint256",
          "name": "listingId",
          "type": "uint256"
        }
      ],
      "name": "Cancelled",
      "type": "event"
    },
    {
      "anonymous": false,
      "inputs": [
        {
          "indexed": false,
          "internalType": "address",
          "name": "newRecipient",
          "type": "address"
        }
      ],
      "name": "FeeRecipientUpdated",
      "type": "event"
    },
    {
      "anonymous": false,
      "inputs": [
        {
          "indexed": false,
          "internalType": "uint256",
          "name": "newFee",
          "type": "uint256"
        }
      ],
      "name": "FeeUpdated",
      "type": "event"
    },
    {
      "anonymous": false,
      "inputs": [
        {
          "indexed": true,
          "internalType": "uint256",
          "name": "listingId",
          "type": "uint256"
        },
        {
          "indexed": true,
          "internalType": "address",
          "name": "seller",
          "type": "address"
        },
        {
          "indexed": false,
          "internalType": "address",
          "name": "nftAddress",
          "type": "address"
        },
        {
          "indexed": false,
          "internalType": "uint256",
          "name": "tokenId",
          "type": "uint256"
        },
        {
          "indexed": false,
          "internalType": "uint256",
          "name": "price",
          "type": "uint256"
        },
        {
          "indexed": false,
          "internalType": "address",
          "name": "paymentToken",
          "type": "address"
        }
      ],
      "name": "Listed",
      "type": "event"
    },
    {
      "anonymous": false,
      "inputs": [
        {
          "indexed": true,
          "internalType": "address",
          "name": "previousOwner",
          "type": "address"
        },
        {
          "indexed": true,
          "internalType": "address",
          "name": "newOwner",
          "type": "address"
        }
      ],
      "name": "OwnershipTransferred",
      "type": "event"
    },
    {
      "inputs": [
        {
          "internalType": "uint256",
          "name": "listingId",
          "type": "uint256"
        }
      ],
      "name": "buyNFT",
      "outputs": [],
      "stateMutability": "payable",
      "type": "function"
    },
    {
      "inputs": [
        {
          "internalType": "uint256",
          "name": "listingId",
          "type": "uint256"
        }
      ],
      "name": "cancelListing",
      "outputs": [],
      "stateMutability": "nonpayable",
      "type": "function"
    },
    {
      "inputs": [],
      "name": "feePercent",
      "outputs": [
        {
          "internalType": "uint256",
          "name": "",
          "type": "uint256"
        }
      ],
      "stateMutability": "view",
      "type": "function"
    },
    {
      "inputs": [],
      "name": "feeRecipient",
      "outputs": [
        {
          "internalType": "address",
          "name": "",
          "type": "address"
        }
      ],
      "stateMutability": "view",
      "type": "function"
    },
    {
      "inputs": [
        {
          "internalType": "address",
          "name": "nftAddress",
          "type": "address"
        },
        {
          "internalType": "uint256",
          "name": "tokenId",
          "type": "uint256"
        },
        {
          "internalType": "uint256",
          "name": "price",
          "type": "uint256"
        },
        {
          "internalType": "address",
          "name": "paymentToken",
          "type": "address"
        }
      ],
      "name": "listNFT",
      "outputs": [],
      "stateMutability": "nonpayable",
      "type": "function"
    },
    {
      "inputs": [],
      "name": "listingCount",
      "outputs": [
        {
          "internalType": "uint256",
          "name": "",
          "type": "uint256"
        }
      ],
      "stateMutability": "view",
      "type": "function"
    },
    {
      "inputs": [
        {
          "internalType": "uint256",
          "name": "",
          "type": "uint256"
        }
      ],
      "name": "listings",
      "outputs": [
        {
          "internalType": "address",
          "name": "seller",
          "type": "address"
        },
        {
          "internalType": "address",
          "name": "nftAddress",
          "type": "address"
        },
        {
          "internalType": "uint256",
          "name": "tokenId",
          "type": "uint256"
        },
        {
          "internalType": "uint256",
          "name": "price",
          "type": "uint256"
        },
        {
          "internalType": "address",
          "name": "paymentToken",
          "type": "address"
        },
        {
          "internalType": "bool",
          "name": "active",
          "type": "bool"
        }
      ],
      "stateMutability": "view",
      "type": "function"
    },
    {
      "inputs": [],
      "name": "owner",
      "outputs": [
        {
          "internalType": "address",
          "name": "",
          "type": "address"
        }
      ],
      "stateMutability": "view",
      "type": "function"
    },
    {
      "inputs": [],
      "name": "renounceOwnership",
      "outputs": [],
      "stateMutability": "nonpayable",
      "type": "function"
    },
    {
      "inputs": [
        {
          "internalType": "address",
          "name": "newOwner",
          "type": "address"
        }
      ],
      "name": "transferOwnership",
      "outputs": [],
      "stateMutability": "nonpayable",
      "type": "function"
    },
    {
      "inputs": [
        {
          "internalType": "uint256",
          "name": "newFee",
          "type": "uint256"
        }
      ],
      "name": "updateFee",
      "outputs": [],
      "stateMutability": "nonpayable",
      "type": "function"
    },
    {
      "inputs": [
        {
          "internalType": "address",
          "name": "newRecipient",
          "type": "address"
        }
      ],
      "name": "updateFeeRecipient",
      "outputs": [],
      "stateMutability": "nonpayable",
      "type": "function"
    }
  ],
  "bytecode": "0x608060405234801561001057600080fd5b50604051611d23380380611d2383398181016040528101906100329190610268565b33600073ffffffffffffffffffffffffffffffffffffffff168173ffffffffffffffffffffffffffffffffffffffff16036100a55760006040517f1e4fbdf700000000000000000000000000000000000000000000000000000000815260040161009c91906102b7565b60405180910390fd5b6100b48161010b60201b60201c565b506001808190555081600360006101000a81548173ffffffffffffffffffffffffffffffffffffffff021916908373ffffffffffffffffffffffffffffffffffffffff1602179055508060028190555050506102d2565b60008060009054906101000a900473ffffffffffffffffffffffffffffffffffffffff169050816000806101000a81548173ffffffffffffffffffffffffffffffffffffffff021916908373ffffffffffffffffffffffffffffffffffffffff1602179055508173ffffffffffffffffffffffffffffffffffffffff168173ffffffffffffffffffffffffffffffffffffffff167f8be0079c531659141344cd1fd0a4f28419497f9722a3daafe3b4186f6b6457e060405160405180910390a35050565b600080fd5b600073ffffffffffffffffffffffffffffffffffffffff82169050919050565b60006101ff826101d4565b9050919050565b61020f816101f4565b811461021a57600080fd5b50565b60008151905061022c81610206565b92915050565b6000819050919050565b61024581610232565b811461025057600080fd5b50565b6000815190506102628161023c565b92915050565b6000806040838503121561027f5761027e6101cf565b5b600061028d8582860161021d565b925050602061029e85828601610253565b9150509250929050565b6102b1816101f4565b82525050565b60006020820190506102cc60008301846102a8565b92915050565b611a42806102e16000396000f3fe6080604052600436106100a75760003560e01c80639012c4a8116100645780639012c4a814610189578063a9b07c26146101b2578063d68cdc52146101dd578063de74e57b14610206578063f160d36914610248578063f2fde38b14610271576100a7565b8063305a67a8146100ac57806346904840146100d557806351ed828814610100578063715018a61461011c5780637fd6f15c146101335780638da5cb5b1461015e575b600080fd5b3480156100b857600080fd5b506100d360048036038101906100ce91906111f5565b61029a565b005b3480156100e157600080fd5b506100ea6104ea565b6040516100f79190611263565b60405180910390f35b61011a600480360381019061011591906111f5565b610510565b005b34801561012857600080fd5b50610131610a57565b005b34801561013f57600080fd5b50610148610a6b565b604051610155919061128d565b60405180910390f35b34801561016a57600080fd5b50610173610a71565b6040516101809190611263565b60405180910390f35b34801561019557600080fd5b506101b060048036038101906101ab91906111f5565b610a9a565b005b3480156101be57600080fd5b506101c7610b27565b6040516101d4919061128d565b60405180910390f35b3480156101e957600080fd5b5061020460048036038101906101ff91906112d4565b610b2d565b005b34801561021257600080fd5b5061022d600480360381019061022891906111f5565b610df7565b60405161023f96959493929190611356565b60405180910390f35b34801561025457600080fd5b5061026f600480360381019061026a91906113b7565b610ea0565b005b34801561027d57600080fd5b50610298600480360381019061029391906113b7565b610f92565b005b6102a2611018565b60006004600083815260200190815260200160002090508060040160149054906101000a900460ff1661030a576040517f08c379a000000000000000000000000000000000000000000000000000000000815260040161030190611441565b60405180910390fd5b8060000160009054906101000a900473ffffffffffffffffffffffffffffffffffffffff1673ffffffffffffffffffffffffffffffffffffffff163373ffffffffffffffffffffffffffffffffffffffff16148061039a575061036b610a71565b73ffffffffffffffffffffffffffffffffffffffff163373ffffffffffffffffffffffffffffffffffffffff16145b6103d9576040517f08c379a00000000000000000000000000000000000000000000000000000000081526004016103d0906114ad565b60405180910390fd5b60008160040160146101000a81548160ff0219169083151502179055508060010160009054906101000a900473ffffffffffffffffffffffffffffffffffffffff1673ffffffffffffffffffffffffffffffffffffffff166323b872dd308360000160009054906101000a900473ffffffffffffffffffffffffffffffffffffffff1684600201546040518463ffffffff1660e01b815260040161047f939291906114cd565b600060405180830381600087803b15801561049957600080fd5b505af11580156104ad573d6000803e3d6000fd5b50505050817fc41d93b8bfbf9fd7cf5bfe271fd649ab6a6fec0ea101c23b82a2a28eca2533a960405160405180910390a2506104e761105e565b50565b600360009054906101000a900473ffffffffffffffffffffffffffffffffffffffff1681565b610518611018565b60006004600083815260200190815260200160002090508060040160149054906101000a900460ff16610580576040517f08c379a000000000000000000000000000000000000000000000000000000000815260040161057790611550565b60405180910390fd5b600060646002548360030154610596919061159f565b6105a09190611610565b905060008183600301546105b49190611641565b905060008360040160146101000a81548160ff021916908315150217905550600073ffffffffffffffffffffffffffffffffffffffff168360040160009054906101000a900473ffffffffffffffffffffffffffffffffffffffff1673ffffffffffffffffffffffffffffffffffffffff160361074a5782600301543414610671576040517f08c379a0000000000000000000000000000000000000000000000000000000008152600401610668906116c1565b60405180910390fd5b8260000160009054906101000a900473ffffffffffffffffffffffffffffffffffffffff1673ffffffffffffffffffffffffffffffffffffffff166108fc829081150290604051600060405180830381858888f193505050501580156106db573d6000803e3d6000fd5b50600360009054906101000a900473ffffffffffffffffffffffffffffffffffffffff1673ffffffffffffffffffffffffffffffffffffffff166108fc839081150290604051600060405180830381858888f19350505050158015610744573d6000803e3d6000fd5b50610939565b60008360040160009054906101000a900473ffffffffffffffffffffffffffffffffffffffff1690508073ffffffffffffffffffffffffffffffffffffffff166323b872dd338660000160009054906101000a900473ffffffffffffffffffffffffffffffffffffffff16856040518463ffffffff1660e01b81526004016107d4939291906114cd565b6020604051808303816000875af11580156107f3573d6000803e3d6000fd5b505050506040513d601f19601f82011682018060405250810190610817919061170d565b610856576040517f08c379a000000000000000000000000000000000000000000000000000000000815260040161084d90611786565b60405180910390fd5b8073ffffffffffffffffffffffffffffffffffffffff166323b872dd33600360009054906101000a900473ffffffffffffffffffffffffffffffffffffffff16866040518463ffffffff1660e01b81526004016108b5939291906114cd565b6020604051808303816000875af11580156108d4573d6000803e3d6000fd5b505050506040513d601f19601f820116820180604052508101906108f8919061170d565b610937576040517f08c379a000000000000000000000000000000000000000000000000000000000815260040161092e906117f2565b60405180910390fd5b505b8260010160009054906101000a900473ffffffffffffffffffffffffffffffffffffffff1673ffffffffffffffffffffffffffffffffffffffff166323b872dd303386600201546040518463ffffffff1660e01b815260040161099e939291906114cd565b600060405180830381600087803b1580156109b857600080fd5b505af11580156109cc573d6000803e3d6000fd5b505050503373ffffffffffffffffffffffffffffffffffffffff16847f7895bd4ff6323b874827e7c09827afb49db435ec423c8487977702687b53fc4985600301548660040160009054906101000a900473ffffffffffffffffffffffffffffffffffffffff16604051610a41929190611812565b60405180910390a3505050610a5461105e565b50565b610a5f611067565b610a6960006110ee565b565b60025481565b60008060009054906101000a900473ffffffffffffffffffffffffffffffffffffffff16905090565b610aa2611067565b600a811115610ae6576040517f08c379a0000000000000000000000000000000000000000000000000000000008152600401610add90611887565b60405180910390fd5b806002819055507f8c4d35e54a3f2ef1134138fd8ea3daee6a3c89e10d2665996babdf70261e2c7681604051610b1c919061128d565b60405180910390a150565b60055481565b610b35611018565b60008211610b78576040517f08c379a0000000000000000000000000000000000000000000000000000000008152600401610b6f906118f3565b60405180910390fd5b8373ffffffffffffffffffffffffffffffffffffffff166323b872dd3330866040518463ffffffff1660e01b8152600401610bb5939291906114cd565b600060405180830381600087803b158015610bcf57600080fd5b505af1158015610be3573d6000803e3d6000fd5b5050505060056000815480929190610bfa90611913565b91905055506040518060c001604052803373ffffffffffffffffffffffffffffffffffffffff1681526020018573ffffffffffffffffffffffffffffffffffffffff1681526020018481526020018381526020018273ffffffffffffffffffffffffffffffffffffffff1681526020016001151581525060046000600554815260200190815260200160002060008201518160000160006101000a81548173ffffffffffffffffffffffffffffffffffffffff021916908373ffffffffffffffffffffffffffffffffffffffff16021790555060208201518160010160006101000a81548173ffffffffffffffffffffffffffffffffffffffff021916908373ffffffffffffffffffffffffffffffffffffffff160217905550604082015181600201556060820151816003015560808201518160040160006101000a81548173ffffffffffffffffffffffffffffffffffffffff021916908373ffffffffffffffffffffffffffffffffffffffff16021790555060a08201518160040160146101000a81548160ff0219169083151502179055509050503373ffffffffffffffffffffffffffffffffffffffff166005547fc34eca5bc6c01e6aa4dff622e2dffa03644e52a66ff85131b3753573aadc288986868686604051610de1949392919061195b565b60405180910390a3610df161105e565b50505050565b60046020528060005260406000206000915090508060000160009054906101000a900473ffffffffffffffffffffffffffffffffffffffff16908060010160009054906101000a900473ffffffffffffffffffffffffffffffffffffffff16908060020154908060030154908060040160009054906101000a900473ffffffffffffffffffffffffffffffffffffffff16908060040160149054906101000a900460ff16905086565b610ea8611067565b600073ffffffffffffffffffffffffffffffffffffffff168173ffffffffffffffffffffffffffffffffffffffff1603610f17576040517f08c379a0000000000000000000000000000000000000000000000000000000008152600401610f0e906119ec565b60405180910390fd5b80600360006101000a81548173ffffffffffffffffffffffffffffffffffffffff021916908373ffffffffffffffffffffffffffffffffffffffff1602179055507f7a7b5a0a132f9e0581eb8527f66eae9ee89c2a3e79d4ac7e41a1f1f4d48a7fc281604051610f879190611263565b60405180910390a150565b610f9a611067565b600073ffffffffffffffffffffffffffffffffffffffff168173ffffffffffffffffffffffffffffffffffffffff160361100c5760006040517f1e4fbdf70000000000000000000000000000000000000000000000000000000081526004016110039190611263565b60405180910390fd5b611015816110ee565b50565b600260015403611054576040517f3ee5aeb500000000000000000000000000000000000000000000000000000000815260040160405180910390fd5b6002600181905550565b60018081905550565b61106f6111b2565b73ffffffffffffffffffffffffffffffffffffffff1661108d610a71565b73ffffffffffffffffffffffffffffffffffffffff16146110ec576110b06111b2565b6040517f118cdaa70000000000000000000000000000000000000000000000000000000081526004016110e39190611263565b60405180910390fd5b565b60008060009054906101000a900473ffffffffffffffffffffffffffffffffffffffff169050816000806101000a81548173ffffffffffffffffffffffffffffffffffffffff021916908373ffffffffffffffffffffffffffffffffffffffff1602179055508173ffffffffffffffffffffffffffffffffffffffff168173ffffffffffffffffffffffffffffffffffffffff167f8be0079c531659141344cd1fd0a4f28419497f9722a3daafe3b4186f6b6457e060405160405180910390a35050565b600033905090565b600080fd5b6000819050919050565b6111d2816111bf565b81146111dd57600080fd5b50565b6000813590506111ef816111c9565b92915050565b60006020828403121561120b5761120a6111ba565b5b6000611219848285016111e0565b91505092915050565b600073ffffffffffffffffffffffffffffffffffffffff82169050919050565b600061124d82611222565b9050919050565b61125d81611242565b82525050565b60006020820190506112786000830184611254565b92915050565b611287816111bf565b82525050565b60006020820190506112a2600083018461127e565b92915050565b6112b181611242565b81146112bc57600080fd5b50565b6000813590506112ce816112a8565b92915050565b600080600080608085870312156112ee576112ed6111ba565b5b60006112fc878288016112bf565b945050602061130d878288016111e0565b935050604061131e878288016111e0565b925050606061132f878288016112bf565b91505092959194509250565b60008115159050919050565b6113508161133b565b82525050565b600060c08201905061136b6000830189611254565b6113786020830188611254565b611385604083018761127e565b611392606083018661127e565b61139f6080830185611254565b6113ac60a0830184611347565b979650505050505050565b6000602082840312156113cd576113cc6111ba565b5b60006113db848285016112bf565b91505092915050565b600082825260208201905092915050565b7f416c726561647920696e61637469766500000000000000000000000000000000600082015250565b600061142b6010836113e4565b9150611436826113f5565b602082019050919050565b6000602082019050818103600083015261145a8161141e565b9050919050565b7f4e6f7420617574686f72697a6564000000000000000000000000000000000000600082015250565b6000611497600e836113e4565b91506114a282611461565b602082019050919050565b600060208201905081810360008301526114c68161148a565b9050919050565b60006060820190506114e26000830186611254565b6114ef6020830185611254565b6114fc604083018461127e565b949350505050565b7f4c697374696e6720696e61637469766500000000000000000000000000000000600082015250565b600061153a6010836113e4565b915061154582611504565b602082019050919050565b600060208201905081810360008301526115698161152d565b9050919050565b7f4e487b7100000000000000000000000000000000000000000000000000000000600052601160045260246000fd5b60006115aa826111bf565b91506115b5836111bf565b92508282026115c3816111bf565b915082820484148315176115da576115d9611570565b5b5092915050565b7f4e487b7100000000000000000000000000000000000000000000000000000000600052601260045260246000fd5b600061161b826111bf565b9150611626836111bf565b925082611636576116356115e1565b5b828204905092915050565b600061164c826111bf565b9150611657836111bf565b925082820390508181111561166f5761166e611570565b5b92915050565b7f496e636f72726563742045544820616d6f756e74000000000000000000000000600082015250565b60006116ab6014836113e4565b91506116b682611675565b602082019050919050565b600060208201905081810360008301526116da8161169e565b9050919050565b6116ea8161133b565b81146116f557600080fd5b50565b600081519050611707816116e1565b92915050565b600060208284031215611723576117226111ba565b5b6000611731848285016116f8565b91505092915050565b7f546f6b656e207061796d656e74206661696c6564000000000000000000000000600082015250565b60006117706014836113e4565b915061177b8261173a565b602082019050919050565b6000602082019050818103600083015261179f81611763565b9050919050565b7f466565207472616e73666572206661696c656400000000000000000000000000600082015250565b60006117dc6013836113e4565b91506117e7826117a6565b602082019050919050565b6000602082019050818103600083015261180b816117cf565b9050919050565b6000604082019050611827600083018561127e565b6118346020830184611254565b9392505050565b7f46656520746f6f20686967680000000000000000000000000000000000000000600082015250565b6000611871600c836113e4565b915061187c8261183b565b602082019050919050565b600060208201905081810360008301526118a081611864565b9050919050565b7f5072696365206d757374206265203e2030000000000000000000000000000000600082015250565b60006118dd6011836113e4565b91506118e8826118a7565b602082019050919050565b6000602082019050818103600083015261190c816118d0565b9050919050565b600061191e826111bf565b91507fffffffffffffffffffffffffffffffffffffffffffffffffffffffffffffffff82036119505761194f611570565b5b600182019050919050565b60006080820190506119706000830187611254565b61197d602083018661127e565b61198a604083018561127e565b6119976060830184611254565b95945050505050565b7f496e76616c696420616464726573730000000000000000000000000000000000600082015250565b60006119d6600f836113e4565b91506119e1826119a0565b602082019050919050565b60006020820190508181036000830152611a05816119c9565b905091905056fea264697066735822122063c6ff368fe828b83063a54d7dbc7e57c6189fa5957e684a602b349eee69295a64736f6c634300081c0033",
  "linkReferences": {},
  "deployedLinkReferences": {}
}