{
  "_format": "hh-sol-artifact-1",
  "contractName": "MockNFT",
  "sourceName": "contracts/test/MockNFT.sol",
  "abi": [
    {
      "inputs": [],
      "stateMutability": "nonpayable",
      "type": "constructor"
    },
    {
      "inputs": [
        {
          "internalType": "address",
          "name": "sender",
          "type": "address"
        },
        {
          "internalType": "uint256",
          "name": "tokenId",
          "type": "uint256"
        },
        {
          "internalType": "address",
          "name": "owner",
          "type": "address"
        }
      ],
      "name": "ERC721IncorrectOwner",
      "type": "error"
    },
    {
      "inputs": [
        {
          "internalType": "address",
          "name": "operator",
          "type": "address"
        },
        {
          "internalType": "uint256",
          "name": "tokenId",
          "type": "uint256"
        }
      ],
      "name": "ERC721InsufficientApproval",
      "type": "error"
    },
    {
      "inputs": [
        {
          "internalType": "address",
          "name": "approver",
          "type": "address"
        }
      ],
      "name": "ERC721InvalidApprover",
      "type": "error"
    },
    {
      "inputs": [
        {
          "internalType": "address",
          "name": "operator",
          "type": "address"
        }
      ],
      "name": "ERC721InvalidOperator",
      "type": "error"
    },
    {
      "inputs": [
        {
          "internalType": "address",
          "name": "owner",
          "type": "address"
        }
      ],
      "name": "ERC721InvalidOwner",
      "type": "error"
    },
    {
      "inputs": [
        {
          "internalType": "address",
          "name": "receiver",
          "type": "address"
        }
      ],
      "name": "ERC721InvalidReceiver",
      "type": "error"
    },
    {
      "inputs": [
        {
          "internalType": "address",
          "name": "sender",
          "type": "address"
        }
      ],
      "name": "ERC721InvalidSender",
      "type": "error"
    },
    {
      "inputs": [
        {
          "internalType": "uint256",
          "name": "tokenId",
          "type": "uint256"
        }
      ],
      "name": "ERC721NonexistentToken",
      "type": "error"
    },
    {
      "anonymous": false,
      "inputs": [
        {
          "indexed": true,
          "internalType": "address",
          "name": "owner",
          "type": "address"
        },
        {
          "indexed": true,
          "internalType": "address",
          "name": "approved",
          "type": "address"
        },
        {
          "indexed": true,
          "internalType": "uint256",
          "name": "tokenId",
          "type": "uint256"
        }
      ],
      "name": "Approval",
      "type": "event"
    },
    {
      "anonymous": false,
      "inputs": [
        {
          "indexed": true,
          "internalType": "address",
          "name": "owner",
          "type": "address"
        },
        {
          "indexed": true,
          "internalType": "address",
          "name": "operator",
          "type": "address"
        },
        {
          "indexed": false,
          "internalType": "bool",
          "name": "approved",
          "type": "bool"
        }
      ],
      "name": "ApprovalForAll",
      "type": "event"
    },
    {
      "anonymous": false,
      "inputs": [
        {
          "indexed": true,
          "internalType": "address",
          "name": "from",
          "type": "address"
        },
        {
          "indexed": true,
          "internalType": "address",
          "name": "to",
          "type": "address"
        },
        {
          "indexed": true,
          "internalType": "uint256",
          "name": "tokenId",
          "type": "uint256"
        }
      ],
      "name": "Transfer",
      "type": "event"
    },
    {
      "inputs": [
        {
          "internalType": "address",
          "name": "to",
          "type": "address"
        },
        {
          "internalType": "uint256",
          "name": "tokenId",
          "type": "uint256"
        }
      ],
      "name": "approve",
      "outputs": [],
      "stateMutability": "nonpayable",
      "type": "function"
    },
    {
      "inputs": [
        {
          "internalType": "address",
          "name": "owner",
          "type": "address"
        }
      ],
      "name": "balanceOf",
      "outputs": [
        {
          "internalType": "uint256",
          "name": "",
          "type": "uint256"
        }
      ],
      "stateMutability": "view",
      "type": "function"
    },
    {
      "inputs": [
        {
          "internalType": "uint256",
          "name": "tokenId",
          "type": "uint256"
        }
      ],
      "name": "getApproved",
      "outputs": [
        {
          "internalType": "address",
          "name": "",
          "type": "address"
        }
      ],
      "stateMutability": "view",
      "type": "function"
    },
    {
      "inputs": [
        {
          "internalType": "address",
          "name": "owner",
          "type": "address"
        },
        {
          "internalType": "address",
          "name": "operator",
          "type": "address"
        }
      ],
      "name": "isApprovedForAll",
      "outputs": [
        {
          "internalType": "bool",
          "name": "",
          "type": "bool"
        }
      ],
      "stateMutability": "view",
      "type": "function"
    },
    {
      "inputs": [
        {
          "internalType": "address",
          "name": "to",
          "type": "address"
        },
        {
          "internalType": "uint256",
          "name": "id",
          "type": "uint256"
        }
      ],
      "name": "mint",
      "outputs": [],
      "stateMutability": "nonpayable",
      "type": "function"
    },
    {
      "inputs": [],
      "name": "name",
      "outputs": [
        {
          "internalType": "string",
          "name": "",
          "type": "string"
        }
      ],
      "stateMutability": "view",
      "type": "function"
    },
    {
      "inputs": [],
      "name": "nextId",
      "outputs": [
        {
          "internalType": "uint256",
          "name": "",
          "type": "uint256"
        }
      ],
      "stateMutability": "view",
      "type": "function"
    },
    {
      "inputs": [
        {
          "internalType": "uint256",
          "name": "tokenId",
          "type": "uint256"
        }
      ],
      "name": "ownerOf",
      "outputs": [
        {
          "internalType": "address",
          "name": "",
          "type": "address"
        }
      ],
      "stateMutability": "view",
      "type": "function"
    },
    {
      "inputs": [
        {
          "internalType": "address",
          "name": "from",
          "type": "address"
        },
        {
          "internalType": "address",
          "name": "to",
          "type": "address"
        },
        {
          "internalType": "uint256",
          "name": "tokenId",
          "type": "uint256"
        }
      ],
      "name": "safeTransferFrom",
      "outputs": [],
      "stateMutability": "nonpayable",
      "type": "function"
    },
    {
      "inputs": [
        {
          "internalType": "address",
          "name": "from",
          "type": "address"
        },
        {
          "internalType": "address",
          "name": "to",
          "type": "address"
        },
        {
          "internalType": "uint256",
          "name": "tokenId",
          "type": "uint256"
        },
        {
          "internalType": "bytes",
          "name": "data",
          "type": "bytes"
        }
      ],
      "name": "safeTransferFrom",
      "outputs": [],
      "stateMutability": "nonpayable",
      "type": "function"
    },
    {
      "inputs": [
        {
          "internalType": "address",
          "name": "operator",
          "type": "address"
        },
        {
          "internalType": "bool",
          "name": "approved",
          "type": "bool"
        }
      ],
      "name": "setApprovalForAll",
      "outputs": [],
      "stateMutability": "nonpayable",
      "type": "function"
    },
    {
      "inputs": [
        {
          "internalType": "bytes4",
          "name": "interfaceId",
          "type": "bytes4"
        }
      ],
      "name": "supportsInterface",
      "outputs": [
        {
          "internalType": "bool",
          "name": "",
          "type": "bool"
        }
      ],
      "stateMutability": "view",
      "type": "function"
    },
    {
      "inputs": [],
      "name": "symbol",
      "outputs": [
        {
          "internalType": "string",
          "name": "",
          "type": "string"
        }
      ],
      "stateMutability": "view",
      "type": "function"
    },
    {
      "inputs": [
        {
          "internalType": "uint256",
          "name": "tokenId",
          "type": "uint256"
        }
      ],
      "name": "tokenURI",
      "outputs": [
        {
          "internalType": "string",
          "name": "",
          "type": "string"
        }
      ],
      "stateMutability": "view",
      "type": "function"
    },
    {
      "inputs": [
        {
          "internalType": "address",
          "name": "from",
          "type": "address"
        },
        {
          "internalType": "address",
          "name": "to",
          "type": "address"
        },
        {
          "internalType": "uint256",
          "name": "tokenId",
          "type": "uint256"
        }
      ],
      "name": "transferFrom",
      "outputs": [],
      "stateMutability": "nonpayable",
      "type": "function"
    }
  ],
  "bytecode": "0x608060405234801561001057600080fd5b506040518060400160405280600781526020017f4d6f636b4e4654000000000000000000000000000000000000000000000000008152506040518060400160405280600481526020017f4d4e465400000000000000000000000000000000000000000000000000000000815250816000908161008c91906102f4565b50806001908161009c91906102f4565b5050506103c6565b600081519050919050565b7f4e487b7100000000000000000000000000000000000000000000000000000000600052604160045260246000fd5b7f4e487b7100000000000000000000000000000000000000000000000000000000600052602260045260246000fd5b6000600282049050600182168061012557607f821691505b602082108103610138576101376100de565b5b50919050565b60008190508160005260206000209050919050565b60006020601f8301049050919050565b600082821b905092915050565b6000600883026101a07fffffffffffffffffffffffffffffffffffffffffffffffffffffffffffffffff82610163565b6101aa8683610163565b95508019841693508086168417925050509392505050565b6000819050919050565b6000819050919050565b60006101f16101ec6101e7846101c2565b6101cc565b6101c2565b9050919050565b6000819050919050565b61020b836101d6565b61021f610217826101f8565b848454610170565b825550505050565b600090565b610234610227565b61023f818484610202565b505050565b5b818110156102635761025860008261022c565b600181019050610245565b5050565b601f8211156102a8576102798161013e565b61028284610153565b81016020851015610291578190505b6102a561029d85610153565b830182610244565b50505b505050565b600082821c905092915050565b60006102cb600019846008026102ad565b1980831691505092915050565b60006102e483836102ba565b9150826002028217905092915050565b6102fd826100a4565b67ffffffffffffffff811115610316576103156100af565b5b610320825461010d565b61032b828285610267565b600060209050601f83116001811461035e576000841561034c578287015190505b61035685826102d8565b8655506103be565b601f19841661036c8661013e565b60005b828110156103945784890151825560018201915060208501945060208101905061036f565b868310156103b157848901516103ad601f8916826102ba565b8355505b6001600288020188555050505b505050505050565b611deb806103d56000396000f3fe608060405234801561001057600080fd5b50600436106100f55760003560e01c806361b8ce8c11610097578063a22cb46511610066578063a22cb46514610284578063b88d4fde146102a0578063c87b56dd146102bc578063e985e9c5146102ec576100f5565b806361b8ce8c146101e85780636352211e1461020657806370a082311461023657806395d89b4114610266576100f5565b8063095ea7b3116100d3578063095ea7b31461017857806323b872dd1461019457806340c10f19146101b057806342842e0e146101cc576100f5565b806301ffc9a7146100fa57806306fdde031461012a578063081812fc14610148575b600080fd5b610114600480360381019061010f9190611635565b61031c565b604051610121919061167d565b60405180910390f35b6101326103fe565b60405161013f9190611728565b60405180910390f35b610162600480360381019061015d9190611780565b610490565b60405161016f91906117ee565b60405180910390f35b610192600480360381019061018d9190611835565b6104ac565b005b6101ae60048036038101906101a99190611875565b6104c2565b005b6101ca60048036038101906101c59190611835565b6105c4565b005b6101e660048036038101906101e19190611875565b6105d2565b005b6101f06105f2565b6040516101fd91906118d7565b60405180910390f35b610220600480360381019061021b9190611780565b6105f8565b60405161022d91906117ee565b60405180910390f35b610250600480360381019061024b91906118f2565b61060a565b60405161025d91906118d7565b60405180910390f35b61026e6106c4565b60405161027b9190611728565b60405180910390f35b61029e6004803603810190610299919061194b565b610756565b005b6102ba60048036038101906102b59190611ac0565b61076c565b005b6102d660048036038101906102d19190611780565b610791565b6040516102e39190611728565b60405180910390f35b61030660048036038101906103019190611b43565b6107fa565b604051610313919061167d565b60405180910390f35b60007f80ac58cd000000000000000000000000000000000000000000000000000000007bffffffffffffffffffffffffffffffffffffffffffffffffffffffff1916827bffffffffffffffffffffffffffffffffffffffffffffffffffffffff191614806103e757507f5b5e139f000000000000000000000000000000000000000000000000000000007bffffffffffffffffffffffffffffffffffffffffffffffffffffffff1916827bffffffffffffffffffffffffffffffffffffffffffffffffffffffff1916145b806103f757506103f68261088e565b5b9050919050565b60606000805461040d90611bb2565b80601f016020809104026020016040519081016040528092919081815260200182805461043990611bb2565b80156104865780601f1061045b57610100808354040283529160200191610486565b820191906000526020600020905b81548152906001019060200180831161046957829003601f168201915b5050505050905090565b600061049b826108f8565b506104a582610980565b9050919050565b6104be82826104b96109bd565b6109c5565b5050565b600073ffffffffffffffffffffffffffffffffffffffff168273ffffffffffffffffffffffffffffffffffffffff16036105345760006040517f64a0ae9200000000000000000000000000000000000000000000000000000000815260040161052b91906117ee565b60405180910390fd5b600061054883836105436109bd565b6109d7565b90508373ffffffffffffffffffffffffffffffffffffffff168173ffffffffffffffffffffffffffffffffffffffff16146105be578382826040517f64283d7b0000000000000000000000000000000000000000000000000000000081526004016105b593929190611be3565b60405180910390fd5b50505050565b6105ce8282610bf1565b5050565b6105ed8383836040518060200160405280600081525061076c565b505050565b60065481565b6000610603826108f8565b9050919050565b60008073ffffffffffffffffffffffffffffffffffffffff168273ffffffffffffffffffffffffffffffffffffffff160361067d5760006040517f89c62b6400000000000000000000000000000000000000000000000000000000815260040161067491906117ee565b60405180910390fd5b600360008373ffffffffffffffffffffffffffffffffffffffff1673ffffffffffffffffffffffffffffffffffffffff168152602001908152602001600020549050919050565b6060600180546106d390611bb2565b80601f01602080910402602001604051908101604052809291908181526020018280546106ff90611bb2565b801561074c5780601f106107215761010080835404028352916020019161074c565b820191906000526020600020905b81548152906001019060200180831161072f57829003601f168201915b5050505050905090565b6107686107616109bd565b8383610cea565b5050565b6107778484846104c2565b61078b6107826109bd565b85858585610e59565b50505050565b606061079c826108f8565b5060006107a761100a565b905060008151116107c757604051806020016040528060008152506107f2565b806107d184611021565b6040516020016107e2929190611c56565b6040516020818303038152906040525b915050919050565b6000600560008473ffffffffffffffffffffffffffffffffffffffff1673ffffffffffffffffffffffffffffffffffffffff16815260200190815260200160002060008373ffffffffffffffffffffffffffffffffffffffff1673ffffffffffffffffffffffffffffffffffffffff16815260200190815260200160002060009054906101000a900460ff16905092915050565b60007f01ffc9a7000000000000000000000000000000000000000000000000000000007bffffffffffffffffffffffffffffffffffffffffffffffffffffffff1916827bffffffffffffffffffffffffffffffffffffffffffffffffffffffff1916149050919050565b600080610904836110ef565b9050600073ffffffffffffffffffffffffffffffffffffffff168173ffffffffffffffffffffffffffffffffffffffff160361097757826040517f7e27328900000000000000000000000000000000000000000000000000000000815260040161096e91906118d7565b60405180910390fd5b80915050919050565b60006004600083815260200190815260200160002060009054906101000a900473ffffffffffffffffffffffffffffffffffffffff169050919050565b600033905090565b6109d2838383600161112c565b505050565b6000806109e3846110ef565b9050600073ffffffffffffffffffffffffffffffffffffffff168373ffffffffffffffffffffffffffffffffffffffff1614610a2557610a248184866112f1565b5b600073ffffffffffffffffffffffffffffffffffffffff168173ffffffffffffffffffffffffffffffffffffffff1614610ab657610a6760008560008061112c565b6001600360008373ffffffffffffffffffffffffffffffffffffffff1673ffffffffffffffffffffffffffffffffffffffff168152602001908152602001600020600082825403925050819055505b600073ffffffffffffffffffffffffffffffffffffffff168573ffffffffffffffffffffffffffffffffffffffff1614610b39576001600360008773ffffffffffffffffffffffffffffffffffffffff1673ffffffffffffffffffffffffffffffffffffffff168152602001908152602001600020600082825401925050819055505b846002600086815260200190815260200160002060006101000a81548173ffffffffffffffffffffffffffffffffffffffff021916908373ffffffffffffffffffffffffffffffffffffffff160217905550838573ffffffffffffffffffffffffffffffffffffffff168273ffffffffffffffffffffffffffffffffffffffff167fddf252ad1be2c89b69c2b068fc378daa952ba7f163c4a11628f55a4df523b3ef60405160405180910390a4809150509392505050565b600073ffffffffffffffffffffffffffffffffffffffff168273ffffffffffffffffffffffffffffffffffffffff1603610c635760006040517f64a0ae92000000000000000000000000000000000000000000000000000000008152600401610c5a91906117ee565b60405180910390fd5b6000610c71838360006109d7565b9050600073ffffffffffffffffffffffffffffffffffffffff168173ffffffffffffffffffffffffffffffffffffffff1614610ce55760006040517f73c6ac6e000000000000000000000000000000000000000000000000000000008152600401610cdc91906117ee565b60405180910390fd5b505050565b600073ffffffffffffffffffffffffffffffffffffffff168273ffffffffffffffffffffffffffffffffffffffff1603610d5b57816040517f5b08ba18000000000000000000000000000000000000000000000000000000008152600401610d5291906117ee565b60405180910390fd5b80600560008573ffffffffffffffffffffffffffffffffffffffff1673ffffffffffffffffffffffffffffffffffffffff16815260200190815260200160002060008473ffffffffffffffffffffffffffffffffffffffff1673ffffffffffffffffffffffffffffffffffffffff16815260200190815260200160002060006101000a81548160ff0219169083151502179055508173ffffffffffffffffffffffffffffffffffffffff168373ffffffffffffffffffffffffffffffffffffffff167f17307eab39ab6107e8899845ad3d59bd9653f200f220920489ca2b5937696c3183604051610e4c919061167d565b60405180910390a3505050565b60008373ffffffffffffffffffffffffffffffffffffffff163b1115611003578273ffffffffffffffffffffffffffffffffffffffff1663150b7a02868685856040518563ffffffff1660e01b8152600401610eb89493929190611ccf565b6020604051808303816000875af1925050508015610ef457506040513d601f19601f82011682018060405250810190610ef19190611d30565b60015b610f78573d8060008114610f24576040519150601f19603f3d011682016040523d82523d6000602084013e610f29565b606091505b506000815103610f7057836040517f64a0ae92000000000000000000000000000000000000000000000000000000008152600401610f6791906117ee565b60405180910390fd5b805160208201fd5b63150b7a0260e01b7bffffffffffffffffffffffffffffffffffffffffffffffffffffffff1916817bffffffffffffffffffffffffffffffffffffffffffffffffffffffff19161461100157836040517f64a0ae92000000000000000000000000000000000000000000000000000000008152600401610ff891906117ee565b60405180910390fd5b505b5050505050565b606060405180602001604052806000815250905090565b606060006001611030846113b5565b01905060008167ffffffffffffffff81111561104f5761104e611995565b5b6040519080825280601f01601f1916602001820160405280156110815781602001600182028036833780820191505090505b509050600082602083010190505b6001156110e4578080600190039150507f3031323334353637383961626364656600000000000000000000000000000000600a86061a8153600a85816110d8576110d7611d5d565b5b0494506000850361108f575b819350505050919050565b60006002600083815260200190815260200160002060009054906101000a900473ffffffffffffffffffffffffffffffffffffffff169050919050565b80806111655750600073ffffffffffffffffffffffffffffffffffffffff168273ffffffffffffffffffffffffffffffffffffffff1614155b15611299576000611175846108f8565b9050600073ffffffffffffffffffffffffffffffffffffffff168373ffffffffffffffffffffffffffffffffffffffff16141580156111e057508273ffffffffffffffffffffffffffffffffffffffff168173ffffffffffffffffffffffffffffffffffffffff1614155b80156111f357506111f181846107fa565b155b1561123557826040517fa9fbf51f00000000000000000000000000000000000000000000000000000000815260040161122c91906117ee565b60405180910390fd5b811561129757838573ffffffffffffffffffffffffffffffffffffffff168273ffffffffffffffffffffffffffffffffffffffff167f8c5be1e5ebec7d5bd14f71427d1e84f3dd0314c0f7b2291e5b200ac8c7c3b92560405160405180910390a45b505b836004600085815260200190815260200160002060006101000a81548173ffffffffffffffffffffffffffffffffffffffff021916908373ffffffffffffffffffffffffffffffffffffffff16021790555050505050565b6112fc838383611508565b6113b057600073ffffffffffffffffffffffffffffffffffffffff168373ffffffffffffffffffffffffffffffffffffffff160361137157806040517f7e27328900000000000000000000000000000000000000000000000000000000815260040161136891906118d7565b60405180910390fd5b81816040517f177e802f0000000000000000000000000000000000000000000000000000000081526004016113a7929190611d8c565b60405180910390fd5b505050565b600080600090507a184f03e93ff9f4daa797ed6e38ed64bf6a1f0100000000000000008310611413577a184f03e93ff9f4daa797ed6e38ed64bf6a1f010000000000000000838161140957611408611d5d565b5b0492506040810190505b6d04ee2d6d415b85acef81000000008310611450576d04ee2d6d415b85acef8100000000838161144657611445611d5d565b5b0492506020810190505b662386f26fc10000831061147f57662386f26fc10000838161147557611474611d5d565b5b0492506010810190505b6305f5e10083106114a8576305f5e100838161149e5761149d611d5d565b5b0492506008810190505b61271083106114cd5761271083816114c3576114c2611d5d565b5b0492506004810190505b606483106114f057606483816114e6576114e5611d5d565b5b0492506002810190505b600a83106114ff576001810190505b80915050919050565b60008073ffffffffffffffffffffffffffffffffffffffff168373ffffffffffffffffffffffffffffffffffffffff16141580156115c057508273ffffffffffffffffffffffffffffffffffffffff168473ffffffffffffffffffffffffffffffffffffffff161480611581575061158084846107fa565b5b806115bf57508273ffffffffffffffffffffffffffffffffffffffff166115a783610980565b73ffffffffffffffffffffffffffffffffffffffff16145b5b90509392505050565b6000604051905090565b600080fd5b600080fd5b60007fffffffff0000000000000000000000000000000000000000000000000000000082169050919050565b611612816115dd565b811461161d57600080fd5b50565b60008135905061162f81611609565b92915050565b60006020828403121561164b5761164a6115d3565b5b600061165984828501611620565b91505092915050565b60008115159050919050565b61167781611662565b82525050565b6000602082019050611692600083018461166e565b92915050565b600081519050919050565b600082825260208201905092915050565b60005b838110156116d25780820151818401526020810190506116b7565b60008484015250505050565b6000601f19601f8301169050919050565b60006116fa82611698565b61170481856116a3565b93506117148185602086016116b4565b61171d816116de565b840191505092915050565b6000602082019050818103600083015261174281846116ef565b905092915050565b6000819050919050565b61175d8161174a565b811461176857600080fd5b50565b60008135905061177a81611754565b92915050565b600060208284031215611796576117956115d3565b5b60006117a48482850161176b565b91505092915050565b600073ffffffffffffffffffffffffffffffffffffffff82169050919050565b60006117d8826117ad565b9050919050565b6117e8816117cd565b82525050565b600060208201905061180360008301846117df565b92915050565b611812816117cd565b811461181d57600080fd5b50565b60008135905061182f81611809565b92915050565b6000806040838503121561184c5761184b6115d3565b5b600061185a85828601611820565b925050602061186b8582860161176b565b9150509250929050565b60008060006060848603121561188e5761188d6115d3565b5b600061189c86828701611820565b93505060206118ad86828701611820565b92505060406118be8682870161176b565b9150509250925092565b6118d18161174a565b82525050565b60006020820190506118ec60008301846118c8565b92915050565b600060208284031215611908576119076115d3565b5b600061191684828501611820565b91505092915050565b61192881611662565b811461193357600080fd5b50565b6000813590506119458161191f565b92915050565b60008060408385031215611962576119616115d3565b5b600061197085828601611820565b925050602061198185828601611936565b9150509250929050565b600080fd5b600080fd5b7f4e487b7100000000000000000000000000000000000000000000000000000000600052604160045260246000fd5b6119cd826116de565b810181811067ffffffffffffffff821117156119ec576119eb611995565b5b80604052505050565b60006119ff6115c9565b9050611a0b82826119c4565b919050565b600067ffffffffffffffff821115611a2b57611a2a611995565b5b611a34826116de565b9050602081019050919050565b82818337600083830152505050565b6000611a63611a5e84611a10565b6119f5565b905082815260208101848484011115611a7f57611a7e611990565b5b611a8a848285611a41565b509392505050565b600082601f830112611aa757611aa661198b565b5b8135611ab7848260208601611a50565b91505092915050565b60008060008060808587031215611ada57611ad96115d3565b5b6000611ae887828801611820565b9450506020611af987828801611820565b9350506040611b0a8782880161176b565b925050606085013567ffffffffffffffff811115611b2b57611b2a6115d8565b5b611b3787828801611a92565b91505092959194509250565b60008060408385031215611b5a57611b596115d3565b5b6000611b6885828601611820565b9250506020611b7985828601611820565b9150509250929050565b7f4e487b7100000000000000000000000000000000000000000000000000000000600052602260045260246000fd5b60006002820490506001821680611bca57607f821691505b602082108103611bdd57611bdc611b83565b5b50919050565b6000606082019050611bf860008301866117df565b611c0560208301856118c8565b611c1260408301846117df565b949350505050565b600081905092915050565b6000611c3082611698565b611c3a8185611c1a565b9350611c4a8185602086016116b4565b80840191505092915050565b6000611c628285611c25565b9150611c6e8284611c25565b91508190509392505050565b600081519050919050565b600082825260208201905092915050565b6000611ca182611c7a565b611cab8185611c85565b9350611cbb8185602086016116b4565b611cc4816116de565b840191505092915050565b6000608082019050611ce460008301876117df565b611cf160208301866117df565b611cfe60408301856118c8565b8181036060830152611d108184611c96565b905095945050505050565b600081519050611d2a81611609565b92915050565b600060208284031215611d4657611d456115d3565b5b6000611d5484828501611d1b565b91505092915050565b7f4e487b7100000000000000000000000000000000000000000000000000000000600052601260045260246000fd5b6000604082019050611da160008301856117df565b611dae60208301846118c8565b939250505056fea2646970667358221220924b75f737c8dd873ff8651e842f9f39e478ad9493810ca383334af7eee2a9ef64736f6c634300081c0033",
  "linkReferences": {},
  "deployedLinkReferences": {}
}